:100000000C941F1B0C94471B0C94471B0C94471B10
:100010000C94471B0C94471B0C94471B0C94471BD8
:100020000C94471B0C94471B0C94471B0C94471BC8
:100030000C94471B0C94471B0C94471B0C94471BB8
:100040000C9457280C94471B0C94471B0C94471B8B
:100050000C94471B0C94471B0C94471B0C94471B98
:100060000C943C270C94471B00407A10F35A00A0D4
:10007000724E18090010A5D4E80000E87648170071
:1000800000E40B54020000CA9A3B000000E1F505B1
:10009000000080969800000040420F000000A086FB
:1000A00001000000102700000000E803000000002D
:1000B0006400000000000A000000000001000000D1
:1000C00000002C76D888DC674F0823DFC1DFAE59EB
:1000D000E1B1B796E5E3E453C63AE651997696E87E
:1000E000E6C28426EB898C9B62ED407C6FFCEFBC02
:1000F0009C9F40F2BAA56FA5F490055A2AF75C932D
:100100006B6CF9676DC11BFCE0E40D47FEF520E662
:10011000B500D0ED902E0300943577050080841E45
:10012000080000204E0A000000C80C333333330FA0
:10013000986E12831141EF8D2114893BE65516CF3D
:10014000FEE6DB18D1844B381BF77C1D901DA4BB49
:10015000E424203284725E228100C9F124ECA1E5FE
:100160003D2720AFFEE30100000C00000000F80076
:100170001EFC000000000000000300000000000062
:10018000000000000000000000000000000000006F
:10019000000000C01F00C01F00801FE0FF07807F1D
:1001A000E0FF03FCFFF7FF0FF00F7C00FF03F03FC1
:1001B000C0EF03E00FE0FF017CC07FC0FF0780FFBE
:1001C00080FF3F007FE0FFFF1FC0FF00FC0FFCC06F
:1001D000FF037C3FC0FFFFFF7FC03F000000C00166
:1001E000003C00000000E00100C0070078003CFF78
:1001F0000078000000000000000000000000000087
:100200000000000000000000000000000000E0FF0F
:10021000030000FEE381C7010C00000000FE031E86
:10022000FE01060000000000C31F00803F803F0069
:10023000F8E0FF811FFEFFC11F800F0000000000DB
:100240000000F07F00F8FF00801FE0FF1FE0FFE1EB
:10025000FF1FFCFFF7FF0FFC3F7C00FF03F03FC0D8
:10026000EF03E00FE0FF037CF0FFC1FF1FE0FF831F
:10027000FFFFC0FFE1FFFF1FC0FF00FC0FFCC0EF4E
:10028000077E3FC0F7FFFF7FC03F000000C00300B4
:100290003C00000000E00100E0070078003CFF00A7
:1002A00078000000000000000000000000000000D6
:1002B00000000000000000000000000000F0FF0748
:1002C0000000FEE381C7817F80036000FF071ECF2F
:1002D00003060000000000E33F00E7FFE0FF00F836
:1002E000E0FFE17FFEFFF17FE03F00000000000043
:1002F00000F8FF00FEFF01C03FE0FF3FF0FFE3FF1B
:100300003FFCFFF7FF0FFF7F7C00FF03F03FE0E7BC
:1003100003E01FF0FF037CF8FFC3FF3FF0FF87FF00
:10032000FFE1FFE3FFFF1FC0F7013E0FFCC0E7073F
:100330003E7EE0F7FFFFFFC03F7800008003003CF7
:1003400000000000E00100F0070078003CFF0078AA
:10035000000000000000000000000000000000009D
:10036000000000000000000000000000F8FF0F0087
:1003700000FEE381E3E1FFE10F7000FF071ECF43C2
:10038000260000000000F37F80F7FFF1FF01FCE092
:10039000FFF1FFFEFFF9FFF07F000000000000000A
:1003A000F8FF013FF007C03FE0FF3FF8FFE7FF7FA6
:1003B000FCFFF7FF8FFFFF7C00FF03F03FF0E3033C
:1003C000E01FF0FF077CFCFFC7FF7FF8FF8FFFFFF8
:1003D000F1FFE7FFFF1FC0F7013E0FFCC0C70F3F53
:1003E0007CE0F3FFFFC1003CFC00008007003C0004
:1003F000000000E00100F0010078003CFF00780000
:100400000000000000000000000000000078000074
:100410000000000000000000000000F89C0F000039
:10042000FEE381E3F1FFF31F30008F079E87E7763D
:100430000000000080F9FFC0F7FFF3FF01FEE0FFBE
:10044000F1FFFFFFF9F8F8FF00000000000000FCDA
:10045000F8810F800FC03FE0037EFCE1EF03FE7CDC
:1004600000F001803FFC7D00FF03F03FF8E103E076
:100470001FF0FF077CFEF1CF077EFCE39F0FF0F338
:10048000E107F0011FC0F7013E0FFCC0870F1FFC02
:10049000F00300FFC1003CFC00000007003C00002E
:1004A0000000E00100F00000780000F0007800009B
:1004B00000000000000000000000000078000000C4
:1004C00000000000000000000000781C0F0000FE8B
:1004D000E3C1E3F9ED731C38808F079E87E77F0047
:1004E00000000080F9F8F0FFF1FBE003FEE000F807
:1004F000F001F07CF0F9F8000000000000007CF052
:10050000C303000FE07FE0037C7C80EF03F87C00F6
:10051000F001C00FF07D00FF03F03FFCE003E01F9F
:10052000F0FF0F7C7EC0CF07FCFC809F0FE0FB80BC
:100530000FF0011FC0E7011E1FFEE1839F0FFCF0BB
:100540000180FFC1013CFC00000000003C000000F5
:1005500000E00100F00000780000F00078000000EA
:100560000000000000000000000000780000000013
:10057000000000000000000000781C0F0000FEE3F7
:10058000C1E3F8CC3F3818808F079E03C73F0000B7
:100590000000807DF0FFFFE07FE003FFF00078E0E7
:1005A00001F83CE07DF0010000000000007CE0E389
:1005B00001001EE07FE0037C3E80FF03F87D00F039
:1005C00001E007E07F00FF03F03F7EE003E03FF83B
:1005D000FF0F7C3F80DF07F87E00BF0FE07B800FBE
:1005E000F0011FC0E7031F1FFEE1039F0FF8F0019A
:1005F000C0EFC1013CFE01000000003C0000000013
:10060000E00100F0000078003CFF007800000000EE
:100610000000000000000000000078000000000062
:100620000000000000000000781C0F0000BEC1C0E8
:10063000E378CC3F381C009F07CC030F0F0000006D
:1006400000C07DF0FFFFC07FC083F7F0003C0000DA
:10065000783CE03DE0010000000000003CE0E300E9
:10066000003CE07FE0037C3E00FF03F07D00F001F2
:10067000E003E07F00FF03F03F3EE003E03FF8FFD0
:100680001F7C1F00DF07F83E00BE0FE07B000FF06D
:10069000011FC0E7031F1FFEE103DF07F8F900E0B9
:1006A000E781013CFE010000807F3C3F801FE0E7C6
:1006B000C10FFE879F7F3C3CFFC0FFC7838FC707EA
:1006C000F883C707F0F987C11FFE3FE03FE07FF0E6
:1006D000C1FFC0FFC0FFFF791C0F0000BEC1FCFFBF
:1006E0007F8C3F380E00FF03CC038F1F00000000FB
:1006F000C07CF0FF7FC07FC083F3F0003C00003C73
:100700003CE03DE0FF0700000000003CE0F380EF2C
:1007100038F0F9E0037C3E00FF03F07F00F001F0C9
:1007200003007C00FF03F03F3FE003E03BB8FF3FE6
:100730007C1F00DF07F83F00FE0FE0FB0000F00128
:100740001FC0C7030F1EFEE103FE07F0F900E0E340
:1007500081033CCF030000E0FFBDFFE07FF0EFF13D
:100760003FFEC7BF7FFF3CFFE0FBF7EFBFF71FFE79
:100770008FF70FFCFBE7F17FFE3FE03FE07FF0C12A
:10078000FFE1FFC0FFFF791C0F00003E00FCFFFFF0
:100790000C38380E00FE03C003CF3FE0010000C05C
:1007A0003CE0817FC007E0C3F3F03E3C1F003E7C8D
:1007B000F03DE0FF070006000C0000F073E0FF389A
:1007C000F0F9E0033E1F00E003E07F00F001F001DC
:1007D000007C00FF03F0BF1FE003E03BB8FF3DFCDF
:1007E0000F00FE07F81F00FC0FF0F90300F0011FD7
:1007F000C0C7870F1ECEE101FE03F07F00F0E3814A
:10080000033CCF030000F0FFFDFFF0FFF8FFF97F8E
:10081000FEE7FFFFFF3DFFF0F9FFFFBFFF1FFF9F58
:10082000FF1FFEFFF7F9FFFE3FE07DF079F0C1F317
:10083000E1FBC0FBFF791C0F00003E00FCFFFF0F37
:10084000701C0700FE01E001DE39E0010000C03C41
:10085000E08107E007F0C1F1F0FFBC7F001EF8F86F
:100860003CE0FF07C007003C0000F839F0FC70F0E6
:10087000F9E0FF1F1F00E003E0FFFFF3FFF70100B7
:10088000FCFFFF03F0FF0FE003E07BBCFF7DFC0FEC
:1008900000FE07FC1F00FC0FF8F13F00F0011FC035
:1008A000C7870F3ECFE301FC03E07F00F8E10103BF
:1008B0003C87030000F0E1FFFFF1FFFCFFFDFFF0CC
:1008C000F0FFFFFF3DFFF8F8FFFFFFFFBFFFBFFF97
:1008D0003FFFFFFF7DF8783CE07DF0F9F0E1E3F3C6
:1008E000F1E0FBFF791C0F00001C00FCFFF71FF07C
:1008F0001F0300FE00E0019E10E0010000E03CE06C
:100900008107E003FEE0F1F0FFFDFF001FF07F7CB8
:10091000F0FF07F0FFFFFF0100FC39787870F8F076
:10092000E0FF1F1F00E003E0FFFFF3FFF70100FC03
:10093000FFFF03F0FF0FE003E07BBCFF79FC0F003B
:10094000FE077E1F00FCFFFFF0FF01F0011FC087C4
:1009500087073ECFF301FC01E03F00FCE00107BC4C
:1009600087070000F8C0FFF0F9F07DF87DF8F0F09F
:10097000E1FFE13FFF7CF81F7FFC1FBE0FBE1F3E63
:100980001FFEFF3DF0793CE079F0F8F8E3E3F3F087
:10099000E103F8781C0F00001C00E071E07FE08F9D
:1009A0000380FFF1E0011E00E0010000603CE081F7
:1009B00007F0037EF0F0F0FFFDFF000FF07FFCF882
:1009C000FF07FEFFFFFF0F00FE3C3C7070F8F0E1F8
:1009D000FF3F1F00E003E0FFFFF3FFF701FFFFFF12
:1009E000FF03F0FF1FE003E07BBCFFF9FC0F00FEFC
:1009F000FF7F1F00FCFF7FE0FF07F0011FC087871C
:100A0000073CCFF301F801C03F00FCE00107BC87C1
:100A1000070000F8C07FE07BF03FF03FF0F1F8C046
:100A2000FFC03FFF3EF80F3EF80FFC07FC0FFC0F26
:100A3000FC1F3CF0793CE079F0F0F8E3C1FFF0E115
:100A4000017C781C0F00001C00E07080FF8183C1D6
:100A5000C1FFF1E0011E00E001F01F603CE08107F2
:100A6000F801FE71F0F0F0FFF8810FF8FFF8FF01D8
:100A700080FFFBFFFB3F007E1C1C7070F8F0E1FF65
:100A80007F1F00E003E0FFFFF3FFF701FFFFFFFF21
:100A900003F0FF1FE003E0739CFFF1FC0F00FEFF7B
:100AA0003F1F00FCFF7F00FF0FF0011FC08787077B
:100AB0003CCFF300FC01C01F007EE00106BC030F29
:100AC000000000F83FE03FE01FE01FF0F1F8C0FF3A
:100AD000C03FFF1FF8071EF807FC07FC0FFC07F8D4
:100AE0000F7C00783CE0F9F8F0F8E3817FE0E10169
:100AF0007E781C0F00001C00E07000FC03C0F1C7F2
:100B0000E773E0011E00E001F01F603CE08107FC9C
:100B100000F07BF000E07FF081077CF0F9FF01F04E
:100B2000FFF8FFE3FF011F1C1E70707CE0E1037CF7
:100B30001F00E003E07F00F001F001FF7F00FF03F2
:100B4000F0FF3FE003E0F39EFFF1FD0F00FEFF0F1B
:100B50001F00FCFFFF00F00FF0011FC007CF033C98
:100B600087F300FC03C01F003FE00106FC030F00F9
:100B70000080FF3FC03F001EE0FFFFF178807FC094
:100B80003FFF3FF8071EF807FC03F807F807F80FC8
:100B9000FC07783CE0F178F0B8E3013FE0F3013F77
:100BA0007C1C1F07001C00E07800FC07C0F8EFE386
:100BB0007FE0011E80FF7FF01F303CE081077F0057
:100BC000E03FF000E03FE0C1073EE0F3EF01F81F37
:100BD000000000FF030F1C0E38787CE0E303F81FD1
:100BE00000E003E07F00F001F001FF7F00FF7FF0F5
:100BF0007F7EE003E0F39EFFE1FD0F00FEFF031F99
:100C000040FC0FF801801FF0011FC007CF033C8795
:100C1000F300FE03800F001FE0010EFC030F000035
:100C2000E0FF3FC03F001EE0FFFFF178807FC03F44
:100C3000FF3FF8071EF807FC03F807F807F807F866
:100C40003F783CE0F178F0BCE7011EE0F3801F3C08
:100C50001C9E1F0C1C00FEFF03CC07E038EEC17F7A
:100C6000E0011E80FF7FF01F303CE081873F00C025
:100C7000FFFF07C03FE0C1071EC083E701F8030084
:100C80000000F8830F1C0E3838FCFFE303F83E0029
:100C9000FF03F07F00F001F003E07F00FF7FF03FF3
:100CA000FCE003E0F39EFFC17F1F00DF07003FE091
:100CB000FC0FF001001FF0011FC007CF03F8877F72
:100CC00000FE07800F801FE0010E3C00000000F0D6
:100CD000C73FC03F001EE0FFFFF178807FC03FFFAD
:100CE0007FF8071EF807FC03F807F807F807E0FF8E
:100CF000783CE0F178E01DF7003FC0F3C00F0E1C18
:100D0000F87F0E1C00FEFF038C07601CFC813FE097
:100D1000011E80FF7FF01F307CF081C70F78C0FF7D
:100D2000FF07C03FE0C1031EC003E001F80300005D
:100D300000F8830F1C0E3838FCFFE303F83E00FF79
:100D400003F07D00F001E003E07F00FF7FF03FFC57
:100D5000E003E0F39EFFC17F1F00DF07003EF0BD10
:100D60000FF07D001FF0011FC007FF03F8877F0011
:100D7000DF0F800FC00FE0010C3C00000000F8C046
:100D80003FC03F001EE01F00F078807FC03FFF7F24
:100D9000F8071EF807FC03F807F807F80780FF7943
:100DA0003CE0E13DE01DF7803FC0F3C0073C1CDEA6
:100DB000F90F0000FEFF7B8C07701CFC011FE00197
:100DC0001E80FF7F0000387CF081E70778C0FFFFBE
:100DD0007FE03FE0E1031EC003E001F81F000000D8
:100DE000FF03001C1E3C1CFEFFE703F87E80FF0390
:100DF000F87D00F001E007E07F00FF7FF03FF8E1C1
:100E000003E0E38EFF817F3F80DF07007EF0BF0FAE
:100E1000F07D001FF0011FC007FE01F8877F809F53
:100E20000F800FE007E0011C3C00000000F8C03F0D
:100E3000E03FE01FE01F00F0F8C07FC03FFFF9F87F
:100E4000071EF807FC07FC0FFC07F80700F8793CC1
:100E5000E0E13DE01DF7807FC07FE0037C1CDFE028
:100E6000070000FEFF7BCC07301CFC033EE0031FA5
:100E700000E0010000187CF081F70378E0FFFF7FBD
:100E8000E07FF0E1033EE03FF000F07FF8FFE3FF9A
:100E900001003C1E3E1EFEFFE703F87C80EF03F8D6
:100EA0007C00F001E007F07F00FF7FF03FF0E303FC
:100EB000E0E38FFF817F7EC0CF0700FCE09F0FF053
:100EC000F9001FF0013FE007FE01F8037F808F1F4C
:100ED000800FE007E0011C3C0000000078E03FE0EC
:100EE0007FE03FF03FF0F0F8C07FC03FFFF8F80729
:100EF0001EF807FC07FC0FFC0FFC073EE0797CF0B6
:100F0000E13DE01FFFC0FF807FF001781C0F8003F0
:100F10003E00703CF8CC07381CFC877FC0030F00F4
:100F2000E0810FE01BF8F880FF01F8E003F0F8F033
:100F3000F9F8E003FCF87DF8FE87FFFBFFFB3F803C
:100F40000F38FCFF0F3EC0E703FCFCE1EF03FE7C23
:100F500000F001C01FFC7F00FFFFF83FE0E303E06B
:100F6000E38FFF017FFEF1CF0700FCC38F0FF0F985
:100F7000C10FF001FEF803FE01F0033FC00F1F8018
:100F80000FF003E001183C00000000F8F07FF0F9DA
:100F9000F07DF87DF8F0F0E17FC03FFFF0F9071E2B
:100FA000F807BC0FBE1F3E1FFE073EE0797CF8C16C
:100FB0001FC00F7EE0F3807FF800781C0F00003E1A
:100FC00000783CF0FF031C38CEFFFFC0030F00E0A9
:100FD000810FE01BF8FF80FFFFF7FF03F0F0FFF940
:100FE000FFF001FCFFF87FFE07FEFFFFFF0F800F01
:100FF00078F8F3071F80EFFF7FF8FFE7FF7FFCFF24
:10100000FF01C0FFFF7F00FFFFFF3EE0E7FFFFE3C0
:101010008FFF017FFCFFC70700F8FF9F0FF0F1FF74
:101020000FF001FEFF03FC00F0033FC0073F800FFD
:10103000F0FFFF01383C00000000F8FFFFFFF9FF60
:10104000FCFFFD7FF0F0FF7FC03FFFE0F9071EF8D7
:1010500007BCFFBFFF3FFFFF077CF0F9FFFFC11F89
:10106000C00F7EE0F3813FF8FF791C0F00003E00C7
:10107000781CF0FF031CF8CFFFFBC0030F00E081DA
:101080000FE00FF07F80FFFFF7FF01F0F0FFF07F30
:10109000F001F8FFF87FFE07F0FFFFFF01800F70FF
:1010A000F0E1011F80EFFF7FF0FFE3FF3FFCFFFF58
:1010B0000180FFBF7F00FFFBFF3EC0EFFFFFC38744
:1010C000FF017EF8FFC30700F0FFBF0FF0E1FF074D
:1010D000F001FCFF01FC00F0033FE0073E800FF051
:1010E000FFFF01383C00000000F8FFFFFFF07FF831
:1010F000EFF97FF0E0FF7FC03FFFE0FB071EF8073E
:101100003CFF9FFF1FFEFF07FCFFF8FBFFC11FC056
:101110000F7EF0E1033FF8FF791C0F00003E0078DE
:101120001CE0FF000EF007FFF1C1030700E0810F94
:10113000E00FE03F80FFFFE7FF00F0E07FE03FF0DF
:1011400001F07FE03FFE07C007003C00800FF00089
:1011500000801F80FFFF3FE0FFE1FF1FFCFFFF015A
:1011600000FE9F7F00FFF37F3E80FFFFFFC387FFEE
:10117000017EF0FFC10700E0FFFF0FF0C3FF03F0A7
:1011800001F8FF00FC00E0011EF0037E800FF0FF7D
:10119000FF01303C00000000F0DFBF7FE07FF0EF98
:1011A000F11FF0C0BF7FC03FFFC0FF071EF8073C24
:1011B000FE8FF70FFEFB07F87FF0FBEF810F800734
:1011C0003CF8E1073FF8FF791C0F00003E00381E95
:1011D000003F0006C0017C0080870700E0810FE02F
:1011E0000FC01F80FFFF873F00F0801F800FF001BE
:1011F000C01F800FFE070006000C00800FE00100FA
:10120000800F00FFFF0F807FE0FF03FCFFFF010066
:10121000FC877F00FFC31F3E80FFFFFFC387FF01E6
:101220007CC07FC0070080FFBC0FE0037F00F0019F
:10123000E03F007800E0011EF003FC800FF0FFFFAC
:1012400001303C00000000E0C73F3E801FE0E3C1EA
:1012500007F0809F7FC03FFFC0FF071EF8073CF8E4
:1012600083C707F8F907E01FE0E3E3810F80073C3D
:10127000F8C0071FF8FF791C0F00000000381E009F
:101280000C0000000000008087070000000C000038
:10129000000000000000000000000000000000004E
:1012A000000000000600000000000000C007000071
:1012B000000000000000000000000000000000002E
:1012C000000000000000000000000000000000001E
:1012D00000000000000000180000000000000000F6
:1012E0000000000000000000000000000000E0011D
:1012F000003C0000000000000000000000000000B2
:101300000000800700000F000000000000000080C7
:10131000070000780000000000000000000000004E
:1013200000001F0000781C0F000000000000000CEF
:101330000000000000000087030000000C00000017
:10134000000000000000000000000000000000009D
:101350000000000600000000000000C03FF0000098
:10136000000000000000000000000000000000007D
:10137000000000000000000000000000000000006D
:10138000000000000000000000000000000000005D
:1013900000000000000000000000000000E001006C
:1013A0003C00000000000000000000000000000001
:1013B000F8C00700000F00000000000000008007D8
:1013C00000007800000000000000000000000000A5
:1013D000001F0000781C0F000000000000000C003F
:1013E000000000000000CF030000000E000000001D
:1013F00000000000000000000000000000000000ED
:101400000000070000000000000000FFFF000000D7
:1014100000000000000000000000000000000000CC
:1014200000000000000000000000000000000000BC
:1014300000000000000000000000000000000000AC
:10144000000000000000000000000000E001003C7F
:10145000000000000000000000000000000000F894
:10146000C00700000F00000000000000008007001F
:101470000078000000000000000000000000008074
:101480000F0000781C0F00000000000000000000AA
:101490000000000000CE0100000007000000000076
:1014A000000000000000000000000000000000003C
:1014B00080030000000000000000FEFF00000000AC
:1014C000000000000000000000000000000000001C
:1014D000000000000000000000000000000000000C
:1014E00000000000000000000000000000000000FC
:1014F0000000000000000000000000E01FC03F00EE
:101500000000000000000000000000000000F0F3F8
:101510000300C00F00000000000000008007000072
:101520007800000000000000000000000000E00F54
:101530000000781C0F000000000000000000000008
:1015400000000000FE010000800300000000000019
:10155000000000000000000000000000000000C0CB
:10156000010000000000000000F81F000000000063
:10157000000000000000000000000000000000006B
:10158000000000000000000000000000000000005B
:10159000000000000000000000000000000000004B
:1015A00000000000000000000000E01FC03F00F04D
:1015B000FF3F0000000000000000000000F0FF03FB
:1015C00000C00F000000000000000080070000784D
:1015D00000000000000000000000000000E0070024
:1015E00000F8FF0F000000000000000000000000F5
:1015F000000000FC0000008000000000000000006F
:10160000000000000000000000000000000040009A
:1016100000000000000000000000000000000000CA
:1016200000000000000000000000000000000000BA
:1016300000000000000000000000000000000000AA
:10164000000000000000000000000000000000009A
:10165000000000000000000000E01FC03F00F0FF9D
:101660003F0000000000000000000000E0FF01005B
:10167000C0070000000000000000800700007800A4
:10168000000000000000000000000000E007000073
:10169000F0FF070000000000000000000000000054
:1016A000000000000000000000000000000000003A
:1016B000000000000000000000000000000000002A
:1016C000000000000000000000000000000000001A
:1016D000000000000000000000000000000000000A
:1016E00000000000000000000000000000000000FA
:1016F00000000000000000000000000000000000EA
:1017000000000000000000000000000000000000D9
:101710000000000000000000000000807F0000C00A
:1017200007000000000000000080070000780000B3
:101730000000000000000000000000E0010000E0E8
:10174000E3030000205F00C401770676115423559F
:1017500033654D66616665656D6575657F658F6628
:1017600094559D66A254AA65B9A6C355D355E355B1
:10177000F3650265115521543265417746774B6513
:101780005B666A657A668A75A754BD67D065E5565B
:10179000FA660C661C65326645664A6559666D6672
:1017A0007D669476A755BE66D065E776FA650D54DA
:1017B000207633554755645578558C659D56A5441C
:1017C000AE74B676C444D686DB65EA66FA650975FA
:1017D0001955295433754376527656745C666B7688
:1017E0006F8687769665A766B775C756D165E1554A
:1017F000EA76F9640A5423653365436551665A777E
:101800005D6666767415253343565E4D4158004D2E
:10181000494E0011560000100000000000000000BA
:1018200000000000000000000000000000000000B8
:1018300000000000000000000000000000000000A8
:101840000000000000000000000000000000000098
:101850000004000000000000000000000000000084
:101860000000000000000000000000DED87C0C82B8
:101870008779080000F2401E1E387E9E7F1E1E00E3
:101880000000F0C10F38FCC1E787FF7F7C061E3CDB
:10189000B881831F8C8F3FF8F887CFFF030F3C0C74
:1018A0000F1EF8FFE331000C60000018800106F6FF
:1018B000C000000000000000000000000000001F49
:1018C00000DED8FE1EC18FFD2A0000FA613F3F3CBA
:1018D0007EBF7F3F3F000000F8731838FCE3EF9FA6
:1018E000FF7FFE061E3C9C81833FCC9F7FFCF9CF8F
:1018F000DFFF030F3C0C1F3FFCFFE33100106000D3
:101900000018C00106F6C00000000000000006003C
:1019100000000000803F00DED8D633C18CCD1C0013
:10192000009FFFF373368673B0F373000000181B3B
:10193000207C0C777CB88101C7071E3C8E81833FD9
:10194000ECB8E18E1BEC380C031B360C1B330C7C03
:101950008679000060000018C00006C0C0000000CA
:101960000000000006000000000080350096FE1711
:10197000B3C00C871D00000DFFE161368601B0E1A8
:1019800061000000188B6F6C0C3678B08101830702
:101990001E3C8781C76F6CB0C1061B6C300C031BEB
:1019A000668CB161066C84CD00C06787879FE7B9FC
:1019B000F7F6F87BB7C7B3C3BD7D3F3C3CC6E3E158
:1019C000BF350006FE1F9E8007862306000DE361DB
:1019D00070339F1D18B3E107061800CF48EE0C3F87
:1019E00060F0818103FE1FBC8381C76F7CF0C1075B
:1019F0001FEE010C031B669EF161066684CD00E0BC
:101A0000EFCFCFDFEFFDFFF7DCFFFFEFF7E7FFFFE3
:101A10003F3C3CC6E3E1BF3500066C3C4C8063862E
:101A20000106800D63703C33BF3F189EF387FF7F34
:101A300080474CC6FC1B60E0BFBF01FE1FFC8181DC
:101A400045CF3CE0E103FEC70F0C0333639EE1C0CA
:101A500003678C870160ECFCFC7CD8CE8FF7CEE767
:101A60007C7C7E7E7EC6366C66663663B835000248
:101A70006C7840C677860106800C6338BC31F17300
:101A80000C3F7FE0F9E781654CC7FD1B60E0BFBFFD
:101A9000E1071EFC83816DCF3CE07F03FE071F0C36
:101AA0000333C3D2E0C08363888701006E7860F897
:101AB000DF8687F7C7633C3C3C3C3C1E366C666661
:101AC0003E339C354702FFF0206F3E86C13F8F0CAE
:101AD000631CF07FE0618C736E380000C764448340
:101AE0000D3F60F08181E3071E3C87816D8F7DF0A3
:101AF0003F471E0E380C0333C3F3F0818161880128
:101B000000C06F7860F8DF8687F7CF633C3C3C3CD1
:101B10003C7C366C666F1C36CCE44C02FFD0A0795E
:101B20001C86C13FCF0C638EE17FE0618C61603821
:101B30000000C76466FF0D3678B0810183077E3CE4
:101B40008E81298F6DB001E61B6C300C03E3C1F36D
:101B5000B081C160980100E06C786078C08687F73A
:101B6000CD633C3C3C3C3CE036CCC33F3E368EB57E
:101B7000380036D690791C860106409C638773B086
:101B8000F37386F373E0F9E7014CA6FF0F777CB897
:101B90008101C7077E3C9C81390FEFB801CE1BEC59
:101BA000380C87E381611883E16090010060ECFCF0
:101BB000FCFCDCCE87F7DC633C7C7E7E3EC636CE0A
:101BC000C339361E8735000636FE10CF3F8601C664
:101BD00070F8E17F3F303F3F063FBF87FF7FC088FF
:101BE0009901FFE3EF9FFF01FE07FE3FB8FF390FAA
:101BF000CF9F01FC19DC1F0CFEC180611C87E17FB7
:101C0000900100E0EFCFCFDFCFFC87F7D8633CEC4B
:101C1000F7E73FFEFE8F8119639CBF350006367CD7
:101C20000886738601C670F0E07F1E301E1E061EF9
:101C30009E070618C0188001FFC1E787FF01BC0797
:101C4000DE37F0FF110F8E8F01F81B9C0F0CFCC0CC
:101C500080610C86E17F900100C07D87879BC7B8BB
:101C600087F7F8633CCCB3C33D7CEC8D8119638C62
:101C7000BF3500000010000000CC00800000000014
:101C80000000000000000004000000700C000000D4
:101C90000000000000000000000000000000000044
:101CA0000100000000000000000000608001000052
:101CB00000000000008001300000000030000C0037
:101CC00000000000000C803500000000000000FC57
:101CD0000080000000000000000000000004000080
:101CE00000C007000000000000000000000000002D
:101CF00000000000000000000000000000000000E4
:101D000000E0E10100000000000000CE0130000012
:101D1000000030000C0000000000000C803F0000BC
:101D200000000000007800400000000000000000FB
:101D300000000002000000000000000000000000A1
:101D40000000000000000000000000000000000093
:101D500000000000000000E0E101FE0300000000C0
:101D600000FC00380000000030000C000000000003
:101D70000007001F0000000000000000000000003D
:101D80000000000000000000000000000000000053
:101D90000000000000000000000000000000000043
:101DA0000000000000000000000000000000000033
:101DB0000000000000000078001800000000300063
:101DC0000C00000000000003000400205F008401FC
:101DD00066036508441155185425552F553155355E
:101DE0006439543E55465548544C554E5452545AF5
:101DF000755F5467546F5477547F5487548F54974A
:101E0000549F56A156A355AB55B355BB65C265CF7C
:101E100054DA55E355ED55F755FF55075511551B48
:101E2000551D5524452F55375542554C555755602E
:101E3000556B5575557E44885592549C54AA55B39C
:101E400054BD55C555C954CD64D155D944E256E564
:101E500045ED55F545FD5505550D551155195521BE
:101E600055235526452E5530553C5544554C555413
:101E7000555C45615568556C5574547C5488558F34
:101E80005497549E55A265A355A755AF26445E00AE
:101E90005EBCE2613FDD83C29C7E20A3FD1F41004A
:101EA0009D23BE46DB65F88C11AF32CA57E9741129
:101EB000650000800000000000000000000000003D
:101EC0000000000000000000000000000000000012
:101ED0000000000000000000000000000000000002
:101EE00000000000000000000000000000000000F2
:101EF00000000000000000000000000000000000E2
:101F000000000000000000000000000000000000D1
:101F10000000000000009E41E2F7C0F8E018080051
:101F20000000C4E3F1F900FBE3FBE7C3030000009A
:101F3000800FF80002FEC1FF3FFEFDC3DFC33FFE7E
:101F4000F11E3CF0078E1FFFF0837FF0FDFFE01FC6
:101F5000FE23FCC77FFEFF0F7810000770000070A3
:101F6000003C0007187C8003000000000000000017
:101F70000000000000000000800F009E21B20C2134
:101F80008CE1246B0000006286198B830B30FA37DA
:101F90006E0C00000080390603068C33D8600C19E3
:101FA00072988119CC600C38700EC430C61906E3E3
:101FB00018C568400EC82188C31C68D8086018007E
:101FC0000C6000006000260006186C000300000092
:101FD00000000000000300000000000000C01A0024
:101FE0009E21B20C318CE12436080000328C090E9F
:101FF000430B18021E3C0800042080300302070C2B
:102000001BD0C00C1818908119CC100C78700E647D
:1020100060860D0CC30CC160400C847104433824ED
:10202000D80860180000600000600026000600600C
:10203000000300000000000000000300000000009A
:102040000000C01A009620B208198C414214080002
:102050000011880106630B0C001B3C180006600091
:10206000B039040D0C1BC0800D1818808119CC08E4
:102070000C68781A6460860D0CC30CC060401C8428
:102080007104233006CC106018000060000060006E
:1020900006000600600003000000000000000003CE
:1020A00000000000000000C01A0096FCFF0809D8DC
:1020B0004042360800001998010621FB0C007934D3
:1020C000F8810180019044840D0C0FC0800D180C24
:1020D000808119CC040C68683A34C0860718C31C88
:1020E000C0604018867104366002CE10602400E0A3
:1020F000630F3F6F3C1FFEF61C6F3CBBE7B987CFF9
:102100003DBCDDBE7FDCC73FE3DF7FFCDF1A00069E
:1021100010E108053C00C3000800801898018210F7
:10212000C3ED81F133F8610000064864841C8C0D16
:10213000C0808D180D808119CC030CC86C7234C01E
:102140008607186378C0604038826B041E6001C641
:102150002060240020E698A1714686F18E196C1843
:10216000731C73CC9863C6B9236398831C438E3960
:1021700028CC1A000410C1F102761EC300080080AA
:10218000189801F308831FC3E0631C18F81F184454
:10219000628418FC0CC080FDF80D80FF19CC030C84
:1021A000C8646234C0C606187FF0C060403002CBFD
:1021B000020CC001C7206042002066F0E060C386C8
:1021C0003186196C06330C336CB0C18399236318C4
:1021D000431827DC3004CE9A830410810379730CF2
:1021E000C380FF7840189881800D030FC610C71B6D
:1021F00006000060443246388C0DC0808D180DBC3E
:102200008119CC060C8865C234C03E061833C0C1A3
:1022100060403001CB021AC000C34060420000663B
:10222000F0C060C3863186196C03330C336CB0C1C7
:1022300083190F631846982678600467728404FE39
:10224000878684E304C30008004018984100FF0714
:102250000F66180E1818000018463AC33F0C0FC03E
:10226000800D180C988119CC0C0C8863C235C006FF
:1022700006187300C360406001C70239C080C340C4
:10228000608100E067F0C060FF86318619EC03339F
:102290000C336CB0C183193E631826B83630600227
:1022A000435288008880C684C307C30008002010FA
:1022B00088210003030F66180C186000000640EE2A
:1022C00021700C1BC0800C1818988119CC180C8830
:1022D00063826560060C1C6300C36040E0018701F7
:1022E00031C080C1806081007066F0C06003061F4D
:1022F00086196C07330C336CB0C183197863182CC2
:10230000701C68E083C15A7000889066848303C3A0
:1023100000080720308C1108030B0B36182C0C809A
:10232000F99F01800020600C1BC0C00C1818988118
:1023300019CC380C0A61026760060C0CE304C36018
:1023400040E000868170C0C0E080E000013066F0AF
:10235000C06003060186196C0E330C336CB0C18368
:10236000196163181C701CECC0C1C11A000688B04A
:102370002684060742000887136086F98F018B19AF
:10238000333026E601066000862110E08C73D060B1
:102390000C1A70988119CC700C0A6002C6300618AD
:1023A0000EC38CC1C020C00086C1E0C0C0E0006187
:1023B000000030E698817186860186196C1C330C0A
:1023C00033CC9863C61961631C18600CC6C1C0D0B9
:1023D0001A000648F01B78FC1F4200088713C0E370
:1023E000FFFF80FFE031E0E3E301042000061E3838
:1023F000F0FFC0EF3FFE7FC0DFC33FECF9FF1FF0EF
:1024000007861F1FF08387FFF0831F400082E1F1E2
:10241000E1E1FF00610000E06F0F3FEFFC0F7FCFB5
:102420003FFCF87F9E7F9E8F3DBC7D3FCE3B0820CA
:1024300008E783E0DF1A00000080000000002400AD
:10244000000408000000000000000000000001007F
:10245000000000000000000000000000000000403C
:102460000C0000000000000000000E000000000052
:1024700000000000000000C0006200FE000000003C
:102480000000C06000400C000000000080018001DE
:10249000000000000000004000C01A000000000022
:1024A00000000024000004080000000000000000FC
:1024B000000000010000000000000000000000001B
:1024C0000000000040040000000000000000003C8C
:1024D000000000000000000000000000C0006200DA
:1024E00000000000000000C07000400C0000000070
:1024F0000080018001000000000000006000C01AA0
:1025000000000000000000001800000304000000AC
:10251000000000000000008000000000000000003B
:10252000000000000000000000C0030000000000E8
:10253000000000007000000000000000000000002B
:1025400000C0037C0000000000000000801F00C0ED
:10255000070000000000C003C003000000000000EE
:10256000003000800F00205F00940155035509449E
:1025700014661B442844354538553C55404447555E
:102580005045535457455A4463546D7673657B6682
:1025900082558B6692559B56A355AC55B555B7558C
:1025A000B954C354CD54D755DE55EB44F9550254B4
:1025B0000D45194522552A453655425546544D4537
:1025C0005945624570457C55884591359F45AA45DA
:1025D000B255BC54C844D544E544F144FD550655B4
:1025E0000A4413551754214528772C4534543E543A
:1025F0004645505558455E446845725576447C447E
:1026000087558B449B45A545AE54B845C255C85522
:10261000CF55D454DE44E944F84402440D551555D1
:1026200019561A551E5428223A585EC060301808B0
:102630000C92A2E2C45860000000000103020202F2
:10264000070D0808080D0600000000002004609037
:10265000080A906004004000000000000002000032
:102660000105000002000000000000202004689026
:10267000080B9068044040000000000000020100C8
:10268000010D00010200000000000060600C6C9071
:102690000B0B906C0C606000000000000003030056
:1026A0000D0D00030300000000000060660E6C903A
:1026B0000B0B906C0E666000000000000607030024
:1026C0000D0D0003070600000000000B3B0080001A
:1026D00000000000000000000000000000000000FA
:1026E00000000000000000000000000000000000EA
:1026F000000000000080000000000000000000005A
:1027000000000000000000002EC0191D990200E822
:10271000EC1CF4DD770E0080C387F3F19EFF79F3A4
:102720007836068F391FE7F3FE793CF378F87FDCC3
:10273000008101187030F630000000003000000009
:10274000007C002EA5B6363D0100B8BF373636DE18
:102750001B00C03688339BB731CCF378338E9F6D26
:10276000B36D9E99793CF378185EF80180011818D2
:1027700030C030000000003000000000D6002EE520
:102780005836A53200B48D313706DEFB190C96D5CC
:10279000360FE73186F3F8318E9FC7F3783E98D92C
:1027A00036B3CD0C9B38019CE7DE3DFBF6765B73C0
:1027B000CDB6FBBDD7F3FED60086DF211C66300008
:1027C000B48D99F61E73FBED1B4BD2F60DE6FF069A
:1027D000FFF830DEAFC7F378F698D9661BC78C993F
:1027E0003801B2BD7B9BBDF7F3F6DE7BDFB6BDD70C
:1027F000DEC6D62C028523F666FC3CB2CD70863749
:10280000DB1E06B029D2360FE631E6F3F83156AFBB
:10281000C7DFF8C399D9661B87C7191900BC3DFBF0
:102820009BBDF7F1F6DE7B8FB3BDD7CC66931BC2A1
:102830008FD266663000B26DF09FB7D918EC9B2935
:10284000E93F0FE731C6F3783376CFC7C37A8E9965
:1028500099E39F0DC3181900B63D7B98BDF7F3F6B9
:10286000DE7B0FB6AD6CDE36D60080A2AA7766306E
:10287000C3B13D36B6B7D9FB190CC8663C9BB7311E
:10288000CCF37B3626CF6D836D9E9999C3CC1863AC
:10289000181A00B6BD7B9BBDF7F6F6DE7BCFB6ED12
:1028A0006CB31FD60086C2C5DC2400C3E1FC1DE664
:1028B0009C71EE01801160FCF19E3FB8F36EFC2725
:1028C0008F39036FF6180FC1CC18E31F1A00ECE71D
:1028D000DE19BFF7FCF676CF8F634B6C33FBD60067
:1028E000008000003C000200000000000000010029
:1028F000E0030000000000000000000000001000E5
:10290000000000000000181800000000000C30005B
:10291000000003030000000003D6000000000018C0
:102920000001000000000000800000000000000026
:102930000000000000000000000000000000000097
:1029400000381C7E00000000071800000003030090
:10295000000080017C00205F0064015503550643A0
:102960000D541254195420552154245427542A44E8
:1029700030543254365438443C54416544544954DC
:102980004E44545459545E54635468546D546F54B7
:10299000715475547A547E5483548D5494549A547B
:1029A000A154A754AC54B154B854BE54C054C544F7
:1029B000CC54D154DA54E154E854EE54F554FB5459
:1029C000015407540D5414541E5425542D5433549B
:1029D00036443A543D544144475449444F54545466
:1029E00058545D54624367546C5471547353764425
:1029F0007C547E5486548B54905495549A449E54DF
:102A0000A353A754AC54B154B854BE54C354C8547F
:102A1000CC55CD54D154D6335E1269BE01000200AC
:102A2000C003E307020000180000000000000000DF
:102A3000000000000000C00FFC011EFE001FFFF0A0
:102A4000FFFFF071E0077EF00E1CE0070E1FFE0195
:102A50001FFE813FFF3FF0037E1C3FF003FEFF1F80
:102A60001F00000E000700001C001E8003E7070E79
:102A70000000000000000000000000000000000056
:102A8000C03F0000BE61C38F87E10773CE1A00000C
:102A90001807CE870FB87FFCFEF3E103000000E0CB
:102AA0001FFF071EFEC37FFFF3FFFFFC77E0077EDB
:102AB000780E1CE00FCE7FFEC77FFEC77FFF3FF082
:102AC000037E1C3FF003FEFF1F1F06001C000700D3
:102AD000001C001F8003E7070E000000000000003C
:102AE000001C00000000000000E0760000BE61E372
:102AF000DF8F710E338C0F0000D81FEFCF1FBC7F0C
:102B0000FEFFFBF307000000E09C070F3F8EE7711C
:102B10008777C0011E77E0077E3C0E3CF00FEEF198
:102B20000EEFF10EEFF170387007771C773807075A
:102B3000F8191C0F0038000700001C00078003E78D
:102B4000070E00000000000000001C000000000054
:102B5000000070E60000BE6173DACC300C3B1C074D
:102B60000000DCDD7FFC1CBE038E811F3F0F0000D8
:102B700000E0DC010C330EE7E00777C0010E7EE0D9
:102B8000077E1E0E3CF01FEEE00EEEE00EEEE07053
:102B9000387007771CF73C8E03DC391C0F000000EF
:102BA0000700001C0007800300070E000000000063
:102BB0000000001C0000000000000070E600009E05
:102BC000FC7FC24C700619980D0000ECF87FFC18D1
:102BD000BF0307C01D1FFE03000000CEB81D330E4B
:102BE000F7E0077EC0010F7EE0077E0F0E7CF83F06
:102BF000FEE00FFEE00FEE0170387006E39CC30CA0
:102C00008E03CE319C1900001FF7E0E11DCF9FF726
:102C10007BE7E77ECFBB87C73DBCDFFCFEE3C78F0A
:102C2000E3C78FFF73E600000EFC7FC26FE0031C5A
:102C3000B8080300EC380E1C1CBB3F77E01C1FFEDD
:102C400003077000EFFC99738E7300077EC00107C5
:102C500070E007FE070E7CF8377EC00F7EC00FCFF6
:102C60000F7038708EE39CC30FDC01CE31DC39006D
:102C7000803FFFF9F7DFDFDFFFFFE777FEFFFFEFC2
:102C8000DF7FFEFFFEFFE3C78FE3C78FFF73E60022
:102C9000000EB0E18337C0311C38000300EC380E61
:102CA0000E8FBB7FFFE0F81BFEC3FFFF0167CC98D0
:102CB00073FE730007FEDF7F07F0FF07FE030E7C45
:102CC000F8777EC00F7FC0FF873F7038708EE39C1F
:102CD0008307DC01C731DC30008071CF3977DE3902
:102CE000C7F9E7E73FFE3C7FEEDC73CEFFC79DE30D
:102CF000C78FE3EE8E8373E600000EB0C10F10F0B5
:102D0000331C3800031FEE388E0F9FB9F3CF71F0DC
:102D1000390FF0F9CF8763C69861FE770007FEDFB1
:102D20007FC7FFFF07FE070EDCEC677EC0FF77C0A2
:102D3000FF037E703870DCE1B6C30FF880C371FC0E
:102D400070000078871F38FC30E7F0E3E71F7E1C37
:102D50003F7EF8E1871F079CE3EE9C737CDCC13962
:102D6000C6790606B0011FD83B3F1C38E01F1FE69E
:102D700038CE07FC39E08771B8F30F7800008F6315
:102D800066D8E10E7F00077EC001C77FE0077E0F97
:102D90000EDCECE77EC0FF71C00F07F0703870DC0E
:102DA000C1B6C10C70C0C1611C0000007F871F3814
:102DB000FC3FE7F0E3E71F7E1C3F7EF8E1871FFF43
:102DC0009CE3EEDC7738DCE11C86FF0706FE073962
:102DD000EC1F1E1C38E01F1FE638EE01F87FE0876D
:102DE000391CE70E1CF80F9C6366CCFF0EFEE00753
:102DF0007EC0010F7EE03F7E1E0EDCECC7FEE00FC2
:102E0000F0EC0FEEE0703870D8C0B6E11C70C0C1B5
:102E1000611C00008077871F38FC3FE7F0E3E73F45
:102E20007E1C3F7EF8E1871FFC9DE3EEDC767CDCB8
:102E30007138C6CD0300FE7739641E1C1C380003B0
:102E400000E738EEE0F8FFE387391C070E78F80F4B
:102E50000F6066CCFF0EEEE00777C0010E7EE03F0C
:102E60007E3C0E9CE787EFE00EE0FC0EEEE0703853
:102E700070F8C0F7713870E0C0E11C0000C07187C5
:102E80001F38FC00E7F0E3E7777E1C3F7EF8E18720
:102E90001FC09DE37CF83EEEF83870E600000ED8C7
:102EA0007039663E3E1C3800E3E0C31D7EE03CB84E
:102EB000F3CF1D1C1FF7F301C087E3FEE7C00FEF40
:102EC000718777C0011E7FE07F7F780E9CE787EFD8
:102ED000F10EE0F90EEEF1707038F880E3703870A2
:102EE00070C0C11C0000C079CF3977DE39C7F9E363
:102EF000E7E77E1C3FEEDC73CE1FC79DF37C783C7A
:102F0000EEF81C70E600000ED8E01FE3F7771C38DF
:102F100000E3E0C31FFEDF1FB87FFE1CF8FBF7C312
:102F200007F081E3BCE3C0FFC77FFFF3FF01FC7F35
:102F3000E0F777F0FE1FE307CF7F0EC07F0ECE7F56
:102F400070F03F7080E3387070F0FFC11C0000C06B
:102F500077FFF9F7DF3FC7FFE3E7E77F1C3FEEDFCF
:102F60007FFE1FFFFCFF38701CC771FC73E600007A
:102F70000ED8C00FC3E3E3181800E0E00307FE9F7C
:102F80000F383F7C1CF0F1F303077080C301E0C0F1
:102F9000FF011FFFF0FF01F87DE0E773E0FF1FE393
:102FA000070E1F0E00FF0E9E3F70C00F7080E338AB
:102FB0007070F0FFC11C000080F7F7E0E11D0F8783
:102FC000F7E3E7C77F1C3F8EC73DBC1F7E78EF3815
:102FD000701CC771FC73E6000000000001000000D7
:102FE000381C00C0000000000000000000000000CD
:102FF0000003000000800700000000000000000047
:103000000000000000000000000000000000C00000
:10301000000000000000000000000000C0011C00D3
:103020000000000000000000007000E00000000050
:1030300000C001800300000000000000700070E686
:10304000000000000001000000300C0060000000E3
:10305000000000000000000000800100000000FFF0
:10306000010000000000000000000000000000005F
:103070000000000000000000000000000000000050
:103080000000000000C0011C000000000000000063
:1030900000C03900E00000000000C0018003000013
:1030A0000000000000300070E6000000000000009A
:1030B0000000700E00200000000000000000000072
:1030C0000000800000000000FC0100000000000083
:1030D00000000000000000000000000000000000F0
:1030E0000000000000000000000000000000C00719
:1030F0001F80FF01000000000000C03F00F800003A
:10310000000000C0018003000000000000003C003F
:10311000E076000000000000000000E00700000072
:10312000000000000000000000000000000000009F
:10313000000000000000000000000000000000008F
:10314000000000000000000000000000000000007F
:1031500000000000000000C0071F80FF0100000009
:10316000000000000F00780000000000C001800394
:10317000000000000000001C00C03F0000205F00B5
:103180008401550455094414441E652B4538553AAD
:1031900045405446554D65555558545D55604465F8
:1031A000546E7574547D5486548F549854A154AA07
:1031B00054B354BC65BF65C255CB55D455DD55E5F8
:1031C00055F55501560C55185524562E553865445D
:1031D00055505553545C456955725580558C5599D9
:1031E00055A455B155BD55C844D355DF44EC55FBE6
:1031F00044074414551E45234428542D4437444164
:1032000044464550555A5563556D5576447D55870E
:1032100055905593539845A155A455B355BC55C6E3
:1032200055D055DA45E055E944EF55F844014410CE
:1032300055195522552A45316533543A554321389D
:10324000565E6C2436FE2525FE36246C00000000F8
:103250000000000C0605060605060C000000000034
:103260000000084800420188C121A0000000008041
:103270001CC271988FF91C07000000701CE2718E4F
:10328000EF73A28F8B8228721EE771BE288AA2E894
:10329000E38483000820002080030202090C000060
:1032A000000000080000000080884000004251BC7F
:1032B000291010812000008022238A984088A2884B
:1032C0002030308822258A92208822024A826D8A04
:1032D000A2288A88288AA2082204420110200020FD
:1032E0004000020008080000000000080000000084
:1032F0004008A1020002F80A240008A222000040AF
:10330000320282942780A288208CCF80BA280AA219
:10331000200822022A826A8AA2280A88288A14059A
:103320002108220200EFF13CE7F11EC34988A57194
:103330001EAFF1BE688BA2E8430801010002501CD9
:10334000420008C2F9800F402A026114E8411C0FB4
:1033500000030043BAE809A2E7C93E021A82AA8A1A
:103360009EE8718848A908822008020080280AA2E5
:103370004888220229886A8AA268088848A994088D
:10338000210802000002F828A10208A22200002061
:103390002682803E28422208008CCF209A2F0AA243
:1033A000208822222A82288B82A8808848A9144259
:1033B0002010020080280AA24F88220219882A8A37
:1033C000A228708848A98888400801000000509E03
:1033D0002C011081200880202242889028222284FB
:1033E0002030300082288A92208822224A82288B2C
:1033F0008228898888D8222220100200802C0AA2E4
:1034000040F0220229882A8AA22880888CA8144F9A
:103410004008010000020008CC02A0000008801053
:103420001CE27338C7211C83200000209CE8718EA9
:103430002FF0A2CF89BE287202277208878822E265
:10344000E3A003FC00EBF13C47802207499C287273
:103450001E2F78308B5022E8838800000000000087
:103460000000000000040010000000000000000048
:10347000100000000000000000000000000000003C
:10348000000C000000000000002000000000000010
:10349000007000E0000000000208000000000007CB
:1034A00000000000205F0644626173654661696C3C
:1034B000000630205557472402004027777577775C
:1034C000000431276373677554512523635755559D
:1034D00067610202010404211402000000020000DE
:1034E0006032042075432242220040354415415584
:1034F000427242551515112554715755155255559F
:103500002441052463666203507223636357555553
:1035100027220720502707427770202577774777A3
:1035200000012477133553273471575323527522E2
:103530002242005015755725347255553552755233
:1035400036600100701605422204102541444545AD
:103550004272025115155125555157314552752565
:10356000214400501515622534725563615275620D
:10357000232200205057072405021227777447772B
:1035800020042157637361755257256135725225A6
:1035900067647060636642255552254131727245F9
:1035A0006732000000000000000000000000000082
:1035B000000000000000000000000000000000000B
:1035C0000000000000003000020000410000003058
:1035D000000000205F044400000000240027002AAF
:1035E0000000000000250028002B0000000008005B
:1035F0000201000003040700000000000000001F9B
:103600001C1F1E1F1E1F1F1E1F1E00000000230068
:103610002600290004040404040404040202020233
:103620000202030303030303010204081020408085
:10363000010204081020010204081020A12811240E
:103640001FBECFEFD8E0DEBFCDBF11E0A0E0B1E0FC
:10365000EEE3FFE602C005900D92A63AB107D9F756
:1036600027E0A6EAB1E001C01D92A930B207E1F758
:103670001BE1CFE1DBE104C02197FE010E946B3624
:10368000CE31D107C9F70E94F0280C949D370C94D5
:103690000000E62FE695E695E69590E8E99FF001B3
:1036A0001124E80FF11DED53FD4F262F30E020953A
:1036B00030952770332741E050E001C0440F2A9530
:1036C000EAF79081942B90839091C202891710F4AD
:1036D0008093C2029091C102981710F48093C102A6
:1036E0008091C002681710F46093C0028091BF02FD
:1036F000861710F46093BF0208950F931F93CF9322
:103700009091C1022091C20221111092C20297FD34
:1037100003C090E89093C1029091C202913818F0D2
:1037200090E89093C2029091BF02981710F4809392
:10373000BF029091C002891710F48093C00290914B
:10374000BF02961710F46093BF029091C0026917F0
:1037500010F46093C002062F081B110B980117FF8D
:1037600003C0319521953109CFEF861708F4C1E0E8
:1037700070E060E090E4A1E0B0E067FD1DC080343F
:10378000D8F4E82FE695E695E69510E8E19FF0017C
:103790001124E60FF71FED53FD4F482F50E04095E1
:1037A0005095477055278D0102C0000F111F4A9593
:1037B000E2F73081302B3083921B97FF02C08C0FD1
:1037C00090586F5F7F4F61387105B9F6CF911F91A7
:1037D0000F9108957F928F929F92AF92BF92CF9256
:1037E000DF92EF92FF920F931F93CF93DF93882E78
:1037F0007B01912CCC24C394D12C092D06950695E0
:10380000069580E1089F80011124892D877056015B
:1038100002C0AA0CBB1C8A95E2F7D0E0C0E00E0DF6
:103820001F1D782C790CF801EC0FFD1FE491F0E0DE
:10383000EA21FB21EF2B29F0672D8C2F845C0E945D
:10384000491B2196C031D10571F793948CE09812F1
:10385000D4CFDF91CF911F910F91FF90EF90DF9028
:10386000CF90BF90AF909F908F907F9008952091C0
:103870005B02260F3327331F21323105ECF42091F0
:103880007F02FC0190E080E0243069F082E008953E
:10389000A0915B022191AC01455C5D4FA40FB52F57
:1038A000B11D2C930196861798F380915B02680FE7
:1038B00060935B0280E0089581E0089508958FEFA2
:1038C0009FEF08958FEF9FEF08958091340290E06D
:1038D0009195819591090895CF93DF93CB01EA01EA
:1038E000642F0E94371CCE01DF91CF910895CF93B2
:1038F000DF931F92CDB7DEB7698361E0CE010196F9
:103900000E94371C81E090E00F90DF91CF910895E5
:1039100090E080E00895833081F028F4813099F0C0
:103920008230A9F008958730A9F08830C9F084303A
:10393000B1F4809180008F7D03C0809180008F77EB
:1039400080938000089584B58F7784BD089584B5F1
:103950008F7DFBCF8091B0008F778093B00008956A
:103960008091B0008F7DF9CFCF93DF93282F30E087
:10397000F901E551FA4C8491F901E85DF94CD491D3
:10398000F901EC5EF94CC491CC23A1F081110E94A5
:103990008B1CEC2FF0E0EE0FFF1FE65FF94CA591BA
:1039A000B491EC91ED2381E090E009F480E0DF91A7
:1039B000CF91089580E090E0FACF1F93CF93DF93EB
:1039C000282F30E0F901E551FA4C8491F901E85DC6
:1039D000F94CD491F901EC5EF94CC491CC23A9F0D7
:1039E000162F81110E948B1CEC2FF0E0EE0FFF1FB1
:1039F000EF51FA4CA591B4918FB7F894EC91111155
:103A000008C0D095DE23DC938FBFDF91CF911F914B
:103A10000895DE2BF8CFCF93DF9390E0FC01E85DB3
:103A2000F94C24918C5E994CFC0184918823D1F04F
:103A300090E0880F991FFC01E952FA4CA591B491CE
:103A4000FC01EF51FA4CC591D49161110EC09FB7A2
:103A5000F8948C91E22FE0958E238C932881E223B9
:103A6000E8839FBFDF91CF9108958FB7F894EC91D1
:103A7000E22BEC938FBFF6CF1F93CF93DF93182FDA
:103A8000EB0161E00E940B1D209739F460E0812F6B
:103A9000DF91CF911F910C94DD1CCF3FD10511F424
:103AA00061E0F5CFE12FF0E0E551FA4CE491E3302D
:103AB00031F140F4E130B1F0E230E1F0C038D1054D
:103AC0007CF7E4CFE73029F1E83059F1E430B1F781
:103AD00080918000806280938000D0938B00C0939F
:103AE0008A0004C084B5806884BDC7BDDF91CF91D2
:103AF0001F91089584B5806284BDC8BDF7CF8091C1
:103B00008000806880938000D0938900C0938800F3
:103B1000EDCF8091B00080688093B000C093B30077
:103B2000E5CF8091B00080628093B000C093B40074
:103B3000DDCF3FB7F8948091300290913102A0918F
:103B40003202B091330226B5A89B05C02F3F19F071
:103B50000196A11DB11D3FBFBA2FA92F982F88270D
:103B6000BC01CD01620F711D811D911D42E0660FE8
:103B7000771F881F991F4A95D1F708958F929F92BA
:103B8000AF92BF92CF92DF92EF92FF926B017C01D6
:103B90000E94991D4B015C01C114D104E104F104A0
:103BA000B9F00E94991D681979098A099B09683E34
:103BB00073408105910580F321E0C21AD108E10824
:103BC000F10888EE880E83E0981EA11CB11CE4CF9A
:103BD000FF90EF90DF90CF90BF90AF909F908F902D
:103BE00008952FB7F89460912C0270912D02809166
:103BF0002E0290912F022FBF0895EF92FF920F9304
:103C00001F93CF93DF93EC010E94F11D6093B102EB
:103C10007093B2028093B3029093B40269813881A9
:103C2000432F50E02A81822F90E0EFEFF5E321E06F
:103C3000261730F47491870F911D2F5F3196F8CFBE
:103C4000633018F0337009F401966DE671E0469F19
:103C50009001479F300D569F300D1124215031099E
:103C60004D5F5F4F5695479556954795240F351FE5
:103C7000280F391FA8E1B0E00E942D362B817B016F
:103C80008C01E20EF11C011D111DA8019701ACE38E
:103C9000B0E00E94C9352C817B018C01E20EF11C41
:103CA000011D111DA80197010E94C935AB01BC017E
:103CB0009D81892F90E0B0E0A0E080589C4BA24904
:103CC000B74C840F951FA61FB71F8093AD0290932A
:103CD000AE02A093AF02B093B002DF91CF911F91DB
:103CE0000F91FF90EF9008957F928F929F92AF92E5
:103CF000BF92CF92DF92EF92FF920F931F93CF93D9
:103D0000DF939091B702242F042E000C330B9217EF
:103D1000130611F00CF096C0491BA42F042E000CC2
:103D2000BB0B9091B8029A171B0609F00CF48AC0DD
:103D30002091BB023091BC02F9010491319614919B
:103D40004003E0011124011120C04091BD025091B7
:103D5000BE02D0E0C0E0FA01E00FF11DE491EA17E5
:103D60001B061CF4D3950F5FF6CFAA0FBB1F2A0FBB
:103D70003B1FF9019491319614912E5F3F4FF90149
:103D80002491C90FD11D022F091B762EC12ED12CD3
:103D900024E0D594C7942A95E1F73CEF932E900E3A
:103DA000E12FEF701CEF180F1E0FA090B902B0901A
:103DB000BA02862E9091B502882D8719891790F541
:103DC000F12CE12C8E2DE01638F59E012E0D3F1DB5
:103DD000F90193E0F695E7959A95E1F7EA0DFB1D59
:103DE000449150E070E060E02770332704C076957E
:103DF0006795579547952A95D2F740FF09C0810FDF
:103E000087FD06C0FFE3F81518F0682D0E94491BD6
:103E10008FEFE81AF80AD6CF8091B602A80EB11C2F
:103E20008394C8CF892D8C0DDF91CF911F910F9175
:103E3000FF90EF90DF90CF90BF90AF909F908F90CA
:103E40007F90089580E0F0CF0F931F93CF93DF937F
:103E5000D82F8B01CEE2F80144914423D9F06D2F85
:103E60008C2F0E94741EC80F2C2F280F3327331F4E
:103E7000203831055CF08091B5024D2F480F552751
:103E8000551F403451052CF4D80FC0E00F5F1F4F71
:103E9000E2CFC0E08C2FDF91CF911F910F91089559
:103EA0000F931F93CF93DF93D62F8A01C82FF8016A
:103EB00041918F014423C9F06D2F8C2F0E94741EF5
:103EC000C80F2C2F280F3327331F203831057CF3E0
:103ED0008091B5024D2F480F5527551F403451058D
:103EE0001CF4D80FC0E0E3CFC0E08C2FDF91CF915E
:103EF0001F910F910895FC0144914093B5029C01DC
:103F00002E5F3F4F0196FC0184918093B60230935F
:103F1000BA022093B902F901489FE00DF11D112466
:103F200094919093B702AF014E5F5F4F3196249109
:103F30002093B8025093BC024093BB02FA019491C3
:103F400091110CC030E0220F331F2F5F3F4F240F21
:103F5000351F3093BE022093BD0208951092BE0219
:103F60001092BD02089528E030E090E8482F4923E0
:103F700051F0409A5C9A5C9A5C985C9896952150B6
:103F80003109A1F708954098F5CF43980C94B31FD9
:103F9000FF920F931F93CF93DF939091C202809172
:103FA000C102891708F44FC0C091C002C695C695DA
:103FB000C69557E0F52E0C2F10E08091BF0290E0DF
:103FC00043E0959587954A95E1F7801791078CF125
:103FD0008C2F8F25806B0E94C51FD091C2028D2F20
:103FE00090E0049624E0959587952A95E1F78F70E7
:103FF00080610E94C51F84E08D0F8F700E94C51FD5
:1040000080EE0E94C51F1695102F00271795079563
:104010000D531D4F8091C1028D1748F0F801ED0F2F
:10402000F11D8081439A0E94B31FDF5FF3CFCF5F02
:10403000C2CF1092C1021092BF028FE78093C202DA
:104040008FE38093C002DF91CF911F910F91FF907A
:104050000895DC0180E0615090F09D919827E92F50
:10406000EF70F0E0E157F14E2491E92FE295EF7007
:10407000F0E0E156F14EE491822F8E27ECCF0895C7
:10408000FC01138615861486128611861086178207
:1040900016821582148213820895DC012C911196E8
:1040A000ED91FC91F8948181822B81839281322F52
:1040B00030959323928387E090E00197F1F7818117
:1040C0008323818383E290E00197F1F790817894D4
:1040D000EFECF0E03197F1F7922381E009F480E012
:1040E0000895FC0190810180F281E02D292F209517
:1040F00060FF14C0F8948281822382838181892B9E
:104100008183A3E2B0E01197F1F78281982B92832B
:10411000789487ED90E00197F1F70895F894828103
:10412000822382838181892B8183AFEFB0E0119755
:10413000F1F78281982B928378948FE090E0EBCF17
:10414000DF92EF92FF920F931F93CF93DF93EC01D7
:10415000D62EE42E08E010E0FF24F39461E08D2DCC
:104160008F2109F460E0CE010E947120FF0C015004
:104170001109A1F7E11010C0F894E981FA81918149
:104180008881809589238183E981FA819281888160
:104190008095892382837894DF91CF911F910F912D
:1041A000FF90EF90DF900895EF92FF920F931F938F
:1041B000CF93DF938C017B0140E065E50E94A02056
:1041C000E70188E0E80EF11C699140E0C8010E9417
:1041D000A020CE15DF05C1F7DF91CF911F910F9180
:1041E000FF90EF900895FC0190810180F281E02D15
:1041F000F8948181292F20958223818378943DE74B
:1042000043E050E0315029F1DA011197F1F7808154
:104210008923C1F3F8948281822382838181892B4F
:1042200081837894ABE7B7E01197F1F7F894818137
:1042300082238183A3E1B1E01197F1F78081982374
:1042400081E009F080E07894E3E6F6E03197F1F759
:10425000089580E008956F927F928F929F92AF921F
:10426000BF92CF92DF92EF92FF920F931F93CF9363
:10427000DF938C01EB018091CC069091CD060E94DA
:10428000F320882309F43FC0B8018091CC069091B7
:10429000CD060E94D42040E06EEB8091CC06909138
:1042A000CD060E94A0207E016E0189E0C80ED11CBF
:1042B0008E01A090CC06B090CD0688E0882E912C7F
:1042C000712C66246394C5010E944D2081117628CB
:1042D000660CE1E08E1A9108B1F7F80171928F0136
:1042E000CE16DF0631F78091CC069091CD060E9464
:1042F000F320813041F4F70181917F01811105C0E4
:10430000E017F107C1F790E008C068E0CE010E9415
:10431000292091E028852813F6CF892FDF91CF91AE
:104320001F910F91FF90EF90DF90CF90BF90AF90D3
:104330009F908F907F906F9008950F931F93CF93CE
:10434000DF93CDB7DEB729970FB6F894DEBF0FBE67
:10435000CDBFFC012081203139F18C01BE016F5F9E
:104360007F4F0E942B21882371F09D81F80180816D
:104370008B3311F497FD18C08AE09F3329F078F44D
:1043800089E09F3109F080E029960FB6F894DEBFEE
:104390000FBECDBFDF91CF911F910F9108958BE09C
:1043A0009F3591F39F3779F78CE0EECF8F929F92F4
:1043B000AF92BF92CF92DF92EF92FF92CF93DF93B3
:1043C00000D000D01F92CDB7DEB78091CC0690917F
:1043D000CD060E94F32040E06CEC8091CC069091D9
:1043E000CD060E94A0204091C30664E48091CC06D3
:1043F0009091CD060E94A0200E94F11D6B017C01CE
:104400008091C70681111EC081E08983CA82DB8248
:10441000EC82FD8229813A814B815C816D8170E063
:1044200080E090E00F900F900F900F900F90DF9131
:10443000CF91FF90EF90DF90CF90BF90AF909F9083
:104440008F9008958091C8068823C1F08091C3069B
:10445000811114C08091CC069091CD060E944D2010
:10446000813091F20E94F11D6C197D098E099F091E
:104470006E3E72408105910568F3C6CFE091C60695
:10448000E9508EEE92E0E33038F4F0E0EE0FFF1FDB
:10449000E85FFE4F808191814C01B12CA12C80916D
:1044A000C406882329F060E08091C5060E94DD1CC7
:1044B000C501B4010E94BE1D8091C406882309F481
:1044C000A3CF61E08091C5060E94DD1C9DCFCF93F4
:1044D000DF93D82FC62F60E08AE00E94DD1CDEBD8E
:1044E0000DB407FEFDCF8EB5CEBD0DB407FEFDCFDA
:1044F000CEB561E08AE00E94DD1C8C2FDF91CF9168
:104500000895CF93DF93CEE0D1E08881882331F006
:10451000698180680E9467222296F7CFDF91CF9150
:10452000089560E00C946722CF93C82F8093AC026B
:1045300081E00E949122837E682F6C2B81E80E948B
:10454000672287E20E94912287FFFBCFCF910895D7
:104550008091C20281111092C2028091C002811129
:104560001092C0028091C1028F3718F48FE78093B8
:10457000C1028091BF028F3318F48FE38093BF0292
:1045800030E020E061E070E02038310541F190E05A
:1045900080E0AC014F5F5F4F41345105E9F0E82FF7
:1045A000E695E695E695A0E8EA9FF0011124E20F72
:1045B000F31FED53FD4F8095909587709927DB0190
:1045C00002C0AA0FBB1F8A95E2F7CD0180959081AA
:1045D00089238083CA01DDCF2F5F3F4FD5CF089558
:1045E000BF92CF92DF92EF92FF920F931F93CF93E0
:1045F000DF93EC01B62EC72E8D85811105C0CE014B
:104600000E94F32081110EC01B861D861C8680E04F
:10461000DF91CF911F910F91FF90EF90DF90CF909E
:10462000BF90089540E060EFCE010E94A02001E01D
:10463000E12CD12C11E0CE010E944D20F82ECE01AC
:104640000E944D2091E0F91218C0813099F5113483
:10465000D8F2DB86D11002C081E08D878B81882360
:1046600099F22396EB2DFC2DCF01089629912193E9
:10467000E817F907D9F781E0CBCFEE2DF0E0F8127B
:104680000FC08B851817A0F4DE01AE0FBF1F139665
:104690008C91802379F4F12C193008F41C87D12EE9
:1046A000EC0FFD1F8381902F9095892383830AC08F
:1046B0008113F1CFFE01EE0DF11D8381802B8383E9
:1046C000FF24F3946F2DCE010E9471201F5F000F15
:1046D00011F4E39401E087E08E1508F0ACCFB7CF7A
:1046E000CF93DF93EC018091CC069091CD060E9490
:1046F0004020BE018091CC069091CD060E94F02210
:10470000982F882341F067E0CE010E94292091E094
:104710002F81281390E0892FDF91CF9108958F92F8
:104720009F92AF92BF92CF92DF92EF92FF920F9340
:104730001F93CF93DF93CDB7DEB761970FB6F89491
:10474000DEBF0FBECDBFCE010A960E94702381113D
:1047500017C060E070E08EEF92EC61960FB6F894AF
:10476000DEBF0FBECDBFDF91CF911F910F91FF90A4
:10477000EF90DF90CF90BF90AF909F908F90089573
:10478000BE016F5F7F4FCE010A960E942B218823C6
:1047900001F32A8160E070E0CB0127FF04C060E0F4
:1047A00070E088EF9FEF4A85C9804B33D9F53D8192
:1047B00037FF38C0C0FCCDCFD12CF12CE12CE3E089
:1047C000CC0CDD1CEE1CFF1CEA95D1F7460157010D
:1047D00030EE832237E09322AA24BB24C22ED12CB0
:1047E000F12CE12CFBE0CC0CDD1CEE1CFF1CFA953F
:1047F000D1F7C828D928EA28FB286C297D298E29D9
:104800009F29613854EE75075FEF850795070CF413
:10481000A0CF0E948D3420E030E040E05CE30E94B5
:10482000EC349BCF022F10E0102F0027110F110F37
:10483000110F58E0C59E600111240C291D29012E7D
:10484000000C220B330B602B712B822B932B4031EE
:10485000C1F648854423A9F28B019C0183E0000F37
:10486000111F221F331F8A95D1F700782770332735
:104870000052110921093109642F70E08F81AB01C9
:10488000481B5109CA019695982F882797958795B7
:104890000E943C36072E000C880B990B600F711F8D
:1048A000821F931FAECF1F93CF93DF9385ED80932D
:1048B000BC008091370290913802A0913902B091EA
:1048C0003A020796A11DB11D23E0B695A7959795CD
:1048D00087952A95D1F72091BC0024FD03C0109242
:1048E0007F0252C0409137025091380260913902E4
:1048F00070913A02452B462B472B69F30097A1058F
:10490000B10541F025E32A95F1F700000197A109CF
:10491000B109E1CF80913602C1E0C093350288230E
:1049200099F1D091B8001091BA008091BC008A7BB7
:104930008093BC0060E082E10E94DD1C60E083E1C6
:104940000E94DD1C10927F02C093810210928002AF
:1049500061E082E10E94DD1C61E083E10E94DD1CD8
:104960008091B9008E7F8093B9008091B9008D7FCE
:104970008093B90088E48093B80085E48093BC00FC
:104980001093BA00D093B800DF91CF911F91089592
:104990004F925F926F927F928F929F92AF92BF924F
:1049A000CF92DF92EF92FF920F931F93CF93DF93FB
:1049B000CDB7DEB763970FB6F894DEBF0FBECDBF9D
:1049C000688B798B8A8B9B8B49015A0127013801AF
:1049D0006FE28FE20E947D1B8091A6018F3708F065
:1049E000E5C0F60190801181028183E198E10E9487
:1049F0007B1FA02EB12C0A3008F0D0C069E371E013
:104A0000CE0101960E9496374AE0BE01655F7F4F56
:104A1000C5010E941A32BE01655F7F4FCE0101962B
:104A20000E948B376BE371E0CE0101960E948B37B9
:104A30001A3030F469E371E0CE0101960E948B37A1
:104A40004AE0BE01655F7F4F812F90E00E941A32DD
:104A5000BE01655F7F4FCE0101960E948B376BE3ED
:104A600071E0CE0101960E948B374AE0BE01655F7E
:104A70007F4F892D90E00E941A32BE01655F7F4F03
:104A8000CE0101960E948B376DE371E0CE01019655
:104A90000E948B37AE014F5F5F4F62E380E00E9460
:104AA000501F8091A6018F5F8093A60183E198E15A
:104AB0000E947B1FF6018381A82EB12C8A3008F05A
:104AC0000EC169E371E0CE0101960E9496374AE07B
:104AD000BE01655F7F4FC5010E941A32BE01655F4E
:104AE0007F4FCE0101960E948B37AE014F5F5F4F23
:104AF00062E382E50E94501FF601858165E571E061
:104B000080FF02C06EE371E0CE0101960E949637ED
:104B1000AE014F5F5F4F62E382E60E94501F6EE37B
:104B200071E0CE0101960E949637F601148169E387
:104B300071E01A3010F06DE371E0CE0101960E9431
:104B40008B374AE0BE01655F7F4F812F90E00E9466
:104B50001A32BE01655F7F4FCE0101960E948B37EE
:104B6000AE014F5F5F4F62E386E60E94501F63967F
:104B70000FB6F894DEBF0FBECDBFDF91CF911F916E
:104B80000F91FF90EF90DF90CF90BF90AF909F90EC
:104B90008F907F906F905F904F9008954AE0BE0194
:104BA0006F5F7F4FC5010E941A323CCF83E198E1CD
:104BB0000E947B1F20E030E048EC51EC6889798945
:104BC0008A899B890E94863487FF78C06FE371E0F1
:104BD000CE0101960E949637AE014F5F5F4F62E3B0
:104BE00080E00E94501F81EB94E30E947B1F20E035
:104BF00030E048EC51ECC501B4010E94863487FDD9
:104C00000AC020E030E048EC51ECC301B2010E9440
:104C1000863487FF06C065E471E0CE0101960E94EC
:104C2000963720E030E048EC51ECC501B4010E9419
:104C3000863787FD11C0C501B4010E945037CB01F2
:104C40004AE0BE016F5F7F4F0E941A3267E471E055
:104C5000CE0101960E948B376FE078E183E30E94DA
:104C6000241FAE014F5F5F4F63E38EE30E94501F2E
:104C700020E030E048EC51ECC301B2010E948637DD
:104C800087FD11C0C301B2010E945037CB014AE039
:104C9000BE016F5F7F4F0E941A3267E471E0CE0160
:104CA00001960E948B376BE078E18BE30E94241F12
:104CB000AE014F5F5F4F6BE38EE3F1CE8E010F5F6E
:104CC0001F4F21E040E0688979898A899B890E9489
:104CD000FC3167E471E0C8010E948B377DCF4AE068
:104CE000BE016F5F7F4FC5010E941A32FECEE3EC1A
:104CF000F2E080E094E0DF019C011D922150304001
:104D0000E1F71092C2021092C0028FE78093C102B5
:104D10008FE38093BF0208952F923F924F925F924C
:104D20006F927F928F929F92AF92BF92CF92DF92BB
:104D3000EF92FF920F931F93CF93DF93CDB7DEB720
:104D4000E2970FB6F894DEBF0FBECDBF1C014A013B
:104D50005B01690138010E9477260E94A82282E641
:104D600092E30E947B1FB101CE0101960E9496370B
:104D700069E471E0CE0101960E948B37AE014F5F6E
:104D80005F4F60E080E00E94501FB601CE010196A7
:104D90000E9496376FE471E0CE0101960E948B3736
:104DA000AE014F5F5F4F66E280E00E94501F82E6D7
:104DB00091E00E947B1FC501B4010E945037CB01D6
:104DC0004AE0BE016F5F7F4F0E941A3269E671E0D0
:104DD000CE0101960E948B37AE014F5F5F4F69E0B5
:104DE00083E00E94501F82E692E30E947B1F20E036
:104DF00030E040E251E4C801B7010E94863487FFE9
:104E00002FC08E010F5F1F4F21E040E0C301B701AB
:104E10000E94FC3167E571E0CE0101960E948B375C
:104E2000AE014F5F5F4F66E285E50E94501FE2963C
:104E30000FB6F894DEBF0FBECDBFDF91CF911F91AB
:104E40000F91FF90EF90DF90CF90BF90AF909F9029
:104E50008F907F906F905F904F903F902F9008952C
:104E6000C801B7010E945037CB014AE0BE016F5F15
:104E70007F4F0E941A32CECF1F920F920FB60F9221
:104E800011242F933F934F935F936F937F938F934F
:104E90009F93AF93BF93EF93FF938091B900887F67
:104EA000803609F44AC0F0F5883209F4A5C018F537
:104EB000803109F499C0B8F4882309F4F5C088302A
:104EC00009F492C0FF91EF91BF91AF919F918F91A3
:104ED0007F916F915F914F913F912F910F900FBEF6
:104EE0000F901F901895883109F486C0803251F7D1
:104EF00080937E0214C0803409F49BC040F4803358
:104F0000B9F38833F9F680937E0285ECAEC0803524
:104F100009F483C0883509F494C0883499F60E9456
:104F20005324D0CF883909F48AC038F5883729F05E
:104F300050F4883611F0803729F683E080937F02A1
:104F400010927D0255C0883809F479C0803919F073
:104F5000803809F0B7CF80917D02803208F06FC0B1
:104F6000E0917D0281E08E0F80937D028091BB00F5
:104F7000F0E0E35AFD4F80833BC0803B39F0D0F432
:104F8000803A09F477C0883A09F09CCF84E0809396
:104F90007F0210925C0210925B02F0E0E0E0099563
:104FA00080915B0281110FC081E080935B021092BF
:104FB0003B0209C0803C09F4A8CF883C09F4A5CF86
:104FC000883B09F07FCFE0915C0281E08E0F8093F7
:104FD0005C02F0E0E55CFD4F80818093BB00909126
:104FE0005C0280915B0229C08091A4028093BB0087
:104FF00085EC8093BC0066CF9091A3028091A202C1
:10500000981758F5E091A30281E08E0F8093A302D8
:10501000F0E0EE57FD4F8081E9CFE091A30281E0FF
:105020008E0F8093A3028091BB00F0E0EE57FD4FFE
:1050300080839091A3028091A2029817C8F285E81C
:10504000D8CFE091A30281E08E0F8093A3028091DC
:10505000BB00F0E0EE57FD4F80838091810281110B
:105060005ECF81E08093800284EA8093BC0010923E
:105070007F0228CF85EC8093BC0010927F02809144
:105080007D02803230F4E0917D02F0E0E35AFD4F82
:10509000108260917D0270E08DE592E0F0E0E0E04A
:1050A000099510927D020ECF10927E0238CF1F928A
:1050B0000F920FB60F9211242F933F938F939F93CC
:1050C000AF93BF9380912C0290912D02A0912E025C
:1050D000B0912F0230912B0223E0230F2D3758F58A
:1050E0000196A11DB11D20932B0280932C02909359
:1050F0002D02A0932E02B0932F0280913002909146
:105100003102A0913202B09133020196A11DB11D6E
:105110008093300290933102A0933202B093330215
:10512000BF91AF919F918F913F912F910F900FBEA3
:105130000F901F90189526E8230F0296A11DB11D10
:10514000D2CFCF93DF93E8EEF6E01282138214827F
:10515000158216821782108611861286138614868F
:10516000158616861786108A118A128A138A148A5F
:10517000158A168A178A108E118E128E138E148E2F
:10518000158E168E178E10A260E085E00E940B1D12
:10519000EDE2F6E3E491CAEDD6E0E883E9E1F6E377
:1051A000E491F0E0EE0FFF1FE65FF94C85919491DA
:1051B0009A838983CE010E944020E3ECF6E0168AB0
:1051C000158A1182D287C18717821086108289E0E2
:1051D000838381E0848385838683DF91CF910895E3
:1051E000CF93DF93CDB7DEB7C555D1090FB6F8948D
:1051F000DEBF0FBECDBF789484B5826084BD84B518
:10520000816084BD85B5826085BD85B5816085BDC1
:1052100080916E00816080936E0010928100809179
:105220008100826080938100809181008160809301
:105230008100809180008160809380008091B10026
:1052400084608093B1008091B00081608093B00051
:1052500080917A00846080937A0080917A008260E5
:1052600080937A0080917A00816080937A008091A7
:105270007A00806880937A001092C10068EC70E038
:1052800080E090E00E94BE1D88E199E20FB6F8949C
:10529000A895809360000FBE9093600085E1809395
:1052A000A9021092AA0261E08AE00E94DD1C61E07E
:1052B0008AE00E940B1D61E08AE00E940B1D61E004
:1052C0008BE00E940B1D60E08CE00E940B1D61E0F2
:1052D0008DE00E940B1D80E58CBD8DB581608DBD7C
:1052E0006AEA8FEA0E9467228FE20E9491228A3A3C
:1052F000B9F765E58FEA0E9467228FE20E9491224A
:105300008535B9F70E9481220E9481226CE687E8E8
:105310000E94672260E888E80E94672260E089E8CE
:105320000E94672262ED80EB0E94672261E08EE0BE
:105330000E940B1D61E084E00E940B1D61E081E191
:105340000E940B1D61E087E00E940B1D60E087E07A
:105350000E94DD1C2FEF69E678E12150604070402B
:10536000E1F700C0000061E087E00E94DD1C83EAF5
:105370000E94C51F80EA0E94C51F80EC0E94C51FC5
:1053800080E40E94C51F8FE20E94C51F84E20E9434
:10539000C51F1092C1021092BF028FE78093C20214
:1053A0008FE38093C0028FEA0E94C51F84EA0E94A7
:1053B000C51F81E80E94C51F89E10E94C51F0E9488
:1053C000772668EC70E083E00E943C1D8091CC065B
:1053D0009091CD060E9440201092CA061092CB06F2
:1053E00011E0BE016F5F7F4F8091CC069091CD069A
:1053F0000E94F022882309F459C067E0CE0101968B
:105400000E94292098858913ECCF8091CA068F5F6E
:105410008093CA068981883231F008F041C080311A
:1054200011F08232F1F68091CB068F5F8093CB062C
:105430008091C306811128C08091CC069091CD0641
:105440000E94F320BE016F5F7F4F8091CC06909148
:10545000CD060E94D42040E064EB8091CC06909170
:10546000CD060E94A0208091CC069091CD060E948E
:105470004D20082F8091CC069091CD060E94F320FC
:10548000011102C01093C306CE0101960E949D2116
:105490009091C606981708F0A4CF8093C606A1CFB6
:1054A0008B3309F2823409F09CCFBDCFCE01C39675
:1054B0000E9470238BA9803109F475C0BE016F5F13
:1054C0007F4FCE01C3960E942B21882309F46BC025
:1054D0008D819BA99B3311F487FD65C08F3709F43B
:1054E00062C08FE78D838091CC069091CD060E949B
:1054F000F320BE016D5C7F4F8091CC069091CD066C
:105500000E94D42040E06EE48091CC069091CD06BC
:105510000E94A02040E06B818091CC069091CD0646
:105520000E94A02040E06C818091CC069091CD0635
:105530000E94A0208BA9803141F040E06D818091D4
:10554000CC069091CD060E94A0208091CC0690912F
:10555000CD062091C906222321F10E94F320882341
:1055600011F1BE016D5C7F4F8091CC069091CD060C
:105570000E94D4204091C30668E48091CC069091AB
:10558000CD060E94A0208091C306811142C064E133
:1055900070E080E090E00E94BE1D8091CC0690916A
:1055A000CD060E94F3208CE08093C6068091CA0647
:1055B000823008F448C08091CC069091CD060E94BC
:1055C000402010E08091CA061817E8F58091C606C1
:1055D0008C30C9F1BE016F5F7F4F8091CC069091F6
:1055E000CD060E94F022882391F067E0CE0101965B
:1055F0000E942920988589130AC0CE0101960E9435
:105600009D219091C606981710F48093C6061F5FDF
:10561000D9CF8091C406882329F060E08091C50627
:105620000E94DD1C64E170E080E090E00E94BE1DFD
:105630008091C406882309F4B0CF61E08091C5064B
:105640000E94DD1CAACF0E94D62121962FAF219760
:1056500022963FAF229723964FAF239724965FAFB2
:10566000249725966FAF25970E948F236093B201F0
:105670007093B3018093B4019093B50160930001DE
:105680007093010180930201909303016093AE0136
:105690007093AF018093B0019093B10180E090E0EE
:1056A000AEEFB2EC8093CC019093CD01A093CE01EC
:1056B000B093CF0161E086E00E940B1D61E089E0BC
:1056C0000E940B1D86E1898381E08A838B831C8283
:1056D0001D821E82CE0101960E94FD1D8091AC02AA
:1056E000803109F4F2C080E10E9494220E94F11DF1
:1056F0000091C4011091C5012091C6013091C701EC
:10570000601B710B820B930B693C71058105910540
:1057100008F4A9C5C090C801D090C901E090CA01A1
:10572000F090CB01F0ECCF0EF4EDDF1EF1E0EF1EB8
:10573000F11C0E94F11DC616D706E806F90660F4B2
:1057400060E070E08EEF92EC6093CC017093CD013D
:105750008093CE019093CF010E94F11D6093C4010C
:105760007093C5018093C6019093C7010E94F11DFB
:105770008090B1029090B202A090B302B090B402B7
:10578000681979098A099B0928EE33E040E050E066
:105790000E940B3669017A01A8EEB3E00E94C93578
:1057A000860E971EA81EB91E8092B1029092B20278
:1057B000A092B302B092B4028091AD029091AE0279
:1057C000A091AF02B091B0028C0D9D1DAE1DBF1D0A
:1057D0008093AD029093AE02A093AF02B093B0025B
:1057E0006C017D0170E8C71A73E4D70A7DE6E70A09
:1057F00078E3F70AC701B6012CE330E040E050E05F
:105800000E940B362A966FAF2A97CA01B9012CE382
:1058100030E040E050E00E940B36262E66967FAFC7
:10582000669764966FAF6497C701B60120E13EE0CA
:1058300040E050E00E940B36CA01B90128E130E097
:1058400040E050E00E940B36362E2B967FAF2B9710
:1058500065966FAF6597C701B60120E831E541E075
:1058600050E00E940B3626961FAE269726964FAD27
:105870002697437081E090E011F090E080E026965A
:105880005FAD26975F5FBC0163597E4F26173707D0
:1058900008F010C1EFEFF5E3CC24C394BCE0CB16C5
:1058A00009F412C18491411104C062E0C61201C022
:1058B0008F5F90E051E05C0D31962817390708F4AE
:1058C00003C1281B390BC52EE9CF87E20E94912224
:1058D0009091A7018074891751F180E48927809302
:1058E000A701903421F188E10E94912290E023E009
:1058F000959587952A95E1F787708093A80284E2B1
:105900000E9491228093A7028FE10E94912210921F
:10591000A5028093A60280E20E9491222091A50216
:105920003091A602282B3093A6022093A50288E28C
:105930000E94912282FFDACE80E00E949122082FFD
:1059400010E0F12CE12CE016F1067CF480E00E94DE
:10595000912292E4E916F10424F4F701E751FE4F95
:105960008083AFEFEA1AFA0AEECF84E20E94912216
:105970008093A7028091E901282F207C9091AA02B0
:105980002913B4CE8F739091A902891729F0882327
:1059900019F09F3309F0AACE0115110509F4A6CE1E
:1059A000EDB6FEB6EDB7FEB7E01BF10B0FB6F894FF
:1059B000FEBF0FBEEDBF8DB79EB701962091EA01E5
:1059C000253009F049C02091EB012A3009F044C08C
:1059D0000131110509F040C021E1E9EEF1E0DC01FF
:1059E00001900D922A95E1F721E1FC01A8EDB1E0CB
:1059F00001900D922A95E1F70E94F11D6093D40168
:105A00007093D5018093D6019093D7018091DD01E9
:105A10009091DC012091DB013091DE014091DF01AA
:105A20005091E00159834A833B832C839D838E836D
:105A3000CE0101960E94FD1D0E94F11D6093D001D0
:105A40007093D1018093D2019093D3010FB6F89453
:105A5000FEBE0FBEEDBE4ACE01321105B9F721E2FE
:105A6000E9EEF1E0DC0101900D922A95E1F721E2E7
:105A7000FC01A8EEB6E001900D922A95E1F7809125
:105A8000EC069091ED06A091EE06B091EF068093A2
:105A9000CC019093CD01A093CE01B093CF010E9491
:105AA000F11D6093C8017093C9018093CA0190935E
:105AB000CB01CCCFA3E9BEEFA81BB90B2A0F3B1F2C
:105AC00026965FAF2697D2CEDD24D394D20E809057
:105AD000060190900701E32C2B96FFAC2B97F092D8
